:020000040800F2
:10000000A01A00207D040008810200088302000875
:10001000870200088B0200088F0200080000000021
:100020000000000000000000000000009302000833
:1000300095020008000000009304000897020008E1
:100040009704000897040008970400089B02000822
:100050009704000897040008990200089704000814
:100060009704000897040008970400089704000804
:1000700097040008970400089704000897040008F4
:1000800097040008970400089704000897040008E4
:1000900097040008970400089704000897040008D4
:1000A00097040008970400089704000897040008C4
:1000B00097040008970400089704000897040008B4
:1000C00097040008970400089704000897040008A4
:1000D0009704000897040008970400088941000865
:1000E0009704000897040008970400089704000884
:1000F0009704000897040008970400089704000874
:100100009704000897040008970400089704000863
:100110009704000897040008970400089704000853
:100120009704000897040008970400089704000843
:1001300000F002F800F094F80AA090E8000C824465
:100140008344AAF10107DA4501D100F089F8AFF242
:10015000090EBAE80F0013F0010F18BFFB1A43F0A5
:10016000010318473473000054730000103A24BF91
:1001700078C878C1FAD8520724BF30C830C144BF0C
:1001800004680C607047000000230024002500264E
:10019000103A28BF78C1FBD8520728BF30C148BFEA
:1001A0000B6070476E2904F02084702904F081856B
:1001B000662906F07285652906F06F85672906F0C5
:1001C0006C85612906F06B8503681B0A28BF41F026
:1001D0008001692904F02C81642904F029817529A2
:1001E00004F026816F2904F00E85782904F04D85EE
:1001F000E92904F0A984E42904F0A684F52904F08F
:10020000A384EF2904F00B85F82904F04C850368DA
:10021000DB0928BF41F08001632904F02A84732997
:1002200004F02F84E32905F0BB81F32905F0C08198
:10023000002070471FB59DE8030004F035FB05F072
:1002400057FA04000020002105F096FF401C606072
:100250000020002105F0A6FFE0601FBD10B510BD15
:1002600005F021FA1146FFF7E5FF01F0E2FE05F087
:1002700003FB03B4FFF7F2FF03BC05F033FB000000
:10028000704700BFFEE700BFFEE700BFFEE700BF0C
:10029000FEE7704770477047704770470CB5002005
:1002A000019000906C48006840F480306A49086012
:1002B00000BF6948006800F4003000900198401CBD
:1002C0000190009818B90198B0F5A06FF1D162487B
:1002D000006800F4003010B10120009001E000201F
:1002E00000900098012843D15C48006840F010005D
:1002F0005A4908600846006820F003000860084674
:10030000006840F002000860534840685249486065
:100310000846406848600846406840F4806048608D
:100320000846406820F47C1048600846406840F465
:10033000881048600846006840F08070086000BF80
:100340004548006800F000700028F9D04248406835
:1003500020F00300404948600846406840F0020031
:10036000486000BF3C48406800F00C000828F9D104
:100370000CBD10B5FFF792FF10BD10B536480068F0
:1003800040F001003449086008464068344908409C
:100390003149486008460068324908402E490860E3
:1003A0000846006820F4802008600846406820F471
:1003B000FE0048604FF41F008860FFF7DAFF4FF03F
:1003C00000602949086010BD10B5002100200022FE
:1003D000214B5B6803F00C0121B1042906D00829E8
:1003E00028D107E0214B224C236027E01F4B204CF3
:1003F000236023E0184B5B6803F47010164B5B68B6
:1004000003F48032022303EB904022B9194B43439B
:10041000174C23600DE0104B5B6803F4003323B1ED
:10042000144B4343124C236003E0104B4343104CE6
:10043000236003E00D4B0E4C236000BF00BF064B52
:100440005B68C3F303130C4CE15C094B1B68CB40A6
:10045000074C236010BD0000001002400020024045
:100460000000FFF8FFFFF6FE08ED00E000127A0042
:100470000000002000093D000400002009488047DA
:1004800009480047FEE7FEE7FEE7FEE7FEE7FEE776
:10049000FEE7FEE7FEE7FEE704480549054A064B8E
:1004A000704700007B03000831010008A002002013
:1004B000A01A0020A00E0020A00E00203149014308
:1004C000314A1160704770B5002100230F22C478B3
:1004D00004B32D4C246804F4E064C4F5E064210AFC
:1004E000C1F10403CA40447804FA03F1847814404B
:1004F00021430901254C0678A155047804F01F0515
:100500000124AC4005786D11AD0005F1E025C5F87A
:10051000004109E0047804F01F050124AC401C4DA3
:100520000678761145F8264070BD1A4A0A40024303
:10053000154B1B1F1A60704739B1134A121D126800
:100540000243114B1B1D1A6006E00F4A121D126870
:1005500082430D4B1B1D1A607047042808D14FF0D1
:10056000E021096941F004014FF0E022116107E048
:100570004FF0E021096921F004014FF0E022116100
:10058000704700000000FA050CED00E000E400E018
:1005900080E100E080FFFF1F10B50446CC48844294
:1005A00008D10121042000F02DFB0021042000F0DF
:1005B00029FB46E0C748844208D10121082000F009
:1005C00021FB0021082000F01DFB3AE0C2488442D4
:1005D00008D10121102000F015FB0021102000F0AF
:1005E00011FB2EE0BD48844208D10121202000F0FB
:1005F00009FB0021202000F005FB22E0B8488442DE
:1006000008D10121402000F0FDFA0021402000F037
:10061000F9FA16E0B348844208D10121802000F0A5
:10062000F1FA0021802000F0EDFA0AE0AE488442A1
:1006300007D10121801500F0E5FA0021A01500F096
:10064000E1FA10BD10B50121084600F0DBFA0021E7
:10065000012000F0D7FA10BD2DE9F0410246002537
:100660000026002000230024002791F803C00CF08E
:100670000F0591F803C00CF0100CBCF1000F03D073
:1006800091F802C04CEA050591F800C0BCF1000FDA
:1006900031D0146800202BE04FF0010C0CFA00F36D
:1006A000B1F800C00CEA03069E4220D183004FF04F
:1006B0000F0C0CFA03F7BC4305FA03FC4CEA0404E4
:1006C00091F803C0BCF1280F06D14FF0010C0CFAD1
:1006D00000FCC2F814C00AE091F803C0BCF1480F56
:1006E00005D14FF0010C0CFA00FCC2F810C0401C00
:1006F0000828D1D31460B1F800C0BCF1FF0F34DD7D
:10070000546800202EE000F1080C4FF0010808FAB0
:100710000CF3B1F800C00CEA03069E4221D183001D
:100720004FF00F0C0CFA03F7BC4305FA03FC4CEA3C
:10073000040491F803C0BCF1280F05D100F1080CA6
:1007400008FA0CF8C2F8148091F803C0BCF1480F05
:1007500007D100F1080C4FF0010808FA0CF8C2F8B4
:100760001080401C0828CED35460BDE8F0814FF6BD
:10077000FF710180022181700421C170704702461F
:10078000002093680B400BB1012000E0002070476F
:100790000146886880B2704702460020D3680B404B
:1007A0000BB1012000E0002070470146C86880B20C
:1007B000704701617047416170470AB1016100E013
:1007C00041617047C16070474FF480320A438261D3
:1007D0008161826182698269704702460020434BD1
:1007E00018684FF68073184040EA021008433F4BE8
:1007F000186070473E49C8617047F0B50A4600234B
:1008000000240021002500F00046B6F1004F02D17F
:10081000364EF16901E0354E7168C0F3034583B28D
:1008200000F44016B6F5401F08D121F070612F4E3C
:10083000766826F070662D4F7E6012E000F4801618
:10084000B6F5801F06D1032606FA05F4A14341F050
:10085000706106E0460D360103FA06F6B14341F039
:10086000706122B1460D360103FA06F6314300F0FD
:100870000046B6F1004F02D11C4EF16101E01B4E63
:100880007160F0BD30B500228B071C0F0F2303FAF7
:1008900004F2164B08338C1053F824309343134C56
:1008A00008348D1044F8253023468C1053F824303A
:1008B0008C07240F00FA04F423430C4C08348D10E9
:1008C00044F8253030BD0A49DC310860704700002B
:1008D00000080140000C01400010014000140140DC
:1008E00000180140001C01400020014000000140B0
:1008F00000002042DF48006840F00100DD49086048
:1009000008464068DC490840DA4948600846006803
:10091000DA490840D74908600846006820F480207A
:1009200008600846406820F4FE0048604FF41F004D
:1009300088607047CF49096821F48031CD4A116041
:100940001146096821F480211160B0F5803F03D081
:10095000B0F5802F0ED106E0C649096841F4803118
:10096000C44A116007E0C349096841F4A021C14AA3
:10097000116000E000BF00BF704710B501460022C3
:10098000002300204A11012A02D1BA4C236806E054
:10099000022A02D1B74C236A01E0B64C636A01F027
:1009A0001F02012494401C400CB1012000E00020F3
:1009B00010BD38B5002000900024002500BF312074
:1009C000FFF7DBFF05460098401C00900098B0F54B
:1009D000A06F01D0002DF2D03120FFF7CEFF08B17B
:1009E000012400E00024204638BD01460020A14A31
:1009F000106820F0F80040EAC10010607047A0497C
:100A000008607047024600209A4B586820F47C101A
:100A100042EA01031843974B5860704798490866AB
:100A2000704701460020934A506820F003000843B5
:100A3000506070478F48406800F00C0070470146D6
:100A400000208C4A506820F0F00008435060704746
:100A500001460020874A506820F4E0600843506057
:100A6000704701460020834A506820F4605040EAF5
:100A7000C1005060704729B17E4A527A02437D4BD3
:100A80005A7204E07B4A527A82437A4B5A72704718
:100A90007B49D8310860704701460020754A50688C
:100AA00020F440400843506070470021714A2032D2
:100AB0001170704A82F82010012802D004280AD14F
:100AC00004E001216B4A2032117005E00521694ADA
:100AD0002032117000E000BF00BF70476949086014
:100AE00070476449096A0143624A11627047654967
:100AF00044390860704730B50021002200240023EB
:100B00005C4D6D6805F00C0121B1042905D0082960
:100B100023D105E05C4D056022E05B4D05601FE0E0
:100B2000544D6D6805F47012524D6D6805F48034B3
:100B3000022505EB92421CB9544D554305600BE06C
:100B40004C4D6D6805F400351DB1504D55430560A1
:100B500002E04D4D5543056002E04B4D056000BF7E
:100B600000BF444D6D6805F0F0010909484D6B5C0C
:100B70000568DD4045603F4D6D6805F4E061090A98
:100B8000434D6B5C4568DD4085603A4D6D6805F40A
:100B90006051C90A3E4D6B5C4568DD40C560354D0E
:100BA0006D6805F44041890B3A4D6B5CC568B5FB37
:100BB000F3F5056130BD29B12E4A526902432D4B30
:100BC0005A6104E02B4A526982432A4B5A617047AA
:100BD00029B1284A92690243264B9A6104E0254ACA
:100BE00092698243234B9A61704729B1214AD269A5
:100BF0000243204BDA6104E01E4AD26982431D4B56
:100C0000DA61704729B11B4AD2680243194BDA6096
:100C100004E0184AD2688243164BDA60704729B163
:100C2000144A12690243134B1A6104E0114A126913
:100C30008243104B1A61704712494039086070476F
:100C40000F49C86470470B49C87170470948406A2A
:100C500040F0807007494862704701460020054A0D
:100C600092680A400AB1012000E000207047014963
:100C700088727047001002400000FFF8FFFFF6FE88
:100C8000000042428004424200127A0000093D0006
:100C9000140000202400002010B50446FB488442C4
:100CA00009D101218803FFF7ADFF00214FF48040F7
:100CB000FFF7A8FF32E0F648844209D10121480439
:100CC000FFF7ADFF00214FF40030FFF7A8FF25E04C
:100CD000F048844209D101218804FFF7A0FF0021D8
:100CE0004FF48020FFF79BFF18E0EB48844209D1C6
:100CF0000121C804FFF793FF00214FF40020FFF704
:100D00008EFF0BE0E548844208D101210805FFF77A
:100D100086FF00214FF48010FFF781FF10BD2DE901
:100D2000F04786B005460E460024A24600BFA14605
:100D30000027B08900B100BF2F462C8A4CF6FF7007
:100D40000440F08804432C82AC894EF6F310044032
:100D5000B08831890843718908430443AC81AC8A67
:100D60004FF6FF400440B0890443AC8201A8FFF76E
:100D7000C2FEC648874202D1DDF810A001E0DDF8CE
:100D80000CA0A88900F4004040B10AEBCA0000EBB7
:100D90000A1031684900B0FBF1F807E00AEBCA001D
:100DA00000EB0A1031688900B0FBF1F86420B8FB51
:100DB000F0F004012009642101FB1089A88900F4E6
:100DC000004040B1322000EBC900B0FBF1F000F070
:100DD0000700044308E0322000EB09106421B0FB57
:100DE000F1F000F00F0004432C8106B0BDE8F0875D
:100DF0004FF41651016000218180C18001810C21D6
:100E0000418100218181704710B502460020108A7F
:100E10004FF2FF0318400B884C8823438C882343F0
:100E2000CC8823431843108210BD002101804180EB
:100E30008180C180704721B1828942F40052828151
:100E400004E082894DF6FF731A4082817047F0B545
:100E50000346002400260025002040F66A17B94208
:100E600000D100BF1846C1F3421401F01F0601274C
:100E700007FA06F5012C01D10C3004E0022C01D157
:100E8000103000E014301AB107682F43076002E009
:100E90000768AF430760F0BD1AB1838A0B438382B2
:100EA00002E0838A8B4383827047028A4FF6F07395
:100EB0001A400282028A0A430282704782894FF2F4
:100EC000FF731A40828182890A438281704721B16F
:100ED000828942F00202828104E082894FF6FD732A
:100EE0001A4082817047028A4FF6DF731A400282ED
:100EF000028A0A430282704721B1028A42F4804288
:100F0000028204E0028A4BF6FF731A4002827047A5
:100F1000C1F308028280704701468888C0F3080048
:100F20007047818941F0010181817047028BD2B203
:100F30000283028B42EA012202837047028B02F491
:100F40007F420283028B0A430283704721B1828A67
:100F500042F02002828204E0828A4FF6DF731A4058
:100F60008282704721B1828A42F01002828204E0BC
:100F7000828A4FF6EF731A408282704721B1828ACB
:100F800042F00802828204E0828A4FF6F7731A4028
:100F90008282704721B1828942F40042828103E05B
:100FA0008289C2F30E028281704721B1828A42F4A3
:100FB0000062828204E0828A4FF2FF731A408282CA
:100FC0007047828A4FF6FB731A408282828A0A43F4
:100FD0008282704721B1828A42F00202828204E05A
:100FE000828A4FF6FD731A408282704702460020C3
:100FF000B1F5007F00D100BF13880B400BB1012079
:1010000000E00020704701F40072B2F5007F00D1CB
:1010100000BFCA430280704770B502460024002317
:101020000025002040F66A16B14200D100BFC1F38E
:10103000421501F01F03012606FA03F3012D02D128
:101040009689334006E0022D02D1168A334001E032
:10105000968A33400C12012606FA04F416883440AE
:1010600013B10CB1012000E0002070BD10B50022CA
:10107000002340F66A14A14200D100BF0A120124E5
:101080009440A3B2DC43048010BD0000003801404E
:101090000044004000480040004C00400050004028
:1010A00010B50446FA48844208D101214015FFF7E3
:1010B000A9FD00216015FFF7A5FD17E0F548844262
:1010C00008D101210015FFF79DFD00212015FFF734
:1010D00099FD0BE0F048844208D10121C803FFF7D5
:1010E00091FD00214FF40040FFF78CFD10BD30B59D
:1010F0000246002000235068E84C20400D790C681F
:1011000044EA0524204350609068E54C2040D1E932
:1011100002542C434D7944EA450420439060D06A40
:1011200020F470000C7C641EE4B2234340EA0350B8
:10113000D06230BD00210160017141718160C160E8
:1011400001210174704721B1826842F0010282607E
:1011500003E0826822F001028260704721B1826858
:1011600042F48072826003E0826822F480728260BE
:10117000704710B50023CBB21AB144681C434460D9
:1011800002E044689C43446010BD816841F008015E
:1011900081607047014600208A6802F008020AB1A7
:1011A000012000E000207047816841F00401816067
:1011B0007047014600208A6802F004020AB101204B
:1011C00000E00020704721B1826842F4A0028260F2
:1011D00003E0826822F4A00282607047014600208A
:1011E0008A6802F480020AB1012000E00020704702
:1011F00010B50A4600210023416821F46041531EC6
:1012000041EA4331416010BD21B1426842F40062BD
:10121000426003E0426822F4006242607047F0B529
:1012200004460D4600200021092D11DDE068A5F1DE
:101230000A0606EB4607072606FA07F18843A5F1DA
:101240000A0606EB460603FA06F10843E0600CE0E6
:10125000206905EB4507072606FA07F1884305EBE9
:10126000450603FA06F108432061072A0FDA606B8E
:10127000561E06EB86071F2606FA07F18843561E00
:1012800006EB860605FA06F10843606322E00D2AA4
:101290000FDA206BD61F06EB86071F2606FA07F12A
:1012A0008843D61F06EB860605FA06F1084320633D
:1012B00010E0E06AA2F10D0606EB86071F2606FA8B
:1012C00007F18843A2F10D0606EB860605FA06F142
:1012D0000843E062F0BD21B1826842F4801282606E
:1012E00003E0826822F48012826070470146C86C75
:1012F00080B2704766484C300068704721B1426840
:1013000042F48062426003E0426822F480624260FC
:10131000704721B1426842F48052426003E0426863
:1013200022F48052426070470A460021816821F40D
:10133000E04111438160704721B1826842F400426C
:10134000826003E0826822F400428260704721B12B
:10135000826842F40212826003E0826822F4021280
:1013600082607047014600208A6802F400120AB1C8
:10137000012000E000207047F0B50446154600202B
:1013800000220026092911DDE068A1F10A0707EB18
:10139000470C072707FA0CF29043A1F10A0707EB65
:1013A000470703FA07F21043E0600CE0206901EB05
:1013B000410C072707FA0CF2904301EB410703FAAF
:1013C00007F210432061A06BC0F30156EF1C06F139
:1013D000010CA7EB0C0707EB870C1F2707FA0CF291
:1013E0009043EF1C06F1010CA7EB0C0707EB8707F6
:1013F00001FA07F21043A063F0BD10B50A460021C0
:101400000023816B21F44011531E41EA0351816393
:1014100010BD08B5002300930090009B0B4400937F
:10142000009B1A6008BD08B502460020009000929B
:1014300001F12800009B184400900098006880B2D9
:1014400008BD0A4600214168164B1940114341600E
:1014500070474162826270470A460021416821F06C
:101460001F0111434160704740B1094908310968C3
:1014700041F40001064A0832116007E004490831CE
:10148000096821F40001024A083211607047000027
:101490000024014000280140003C0140FFFEF0FF15
:1014A000FDF7F1FFFFFD3FFF0246002013680B40F0
:1014B0000BB1012000E000207047CA430260704772
:1014C00070B502460020002300240B125568CEB2EE
:1014D00005EA060415681D4015B10CB1012000E0B5
:1014E000002070BD00220A12D34303607047000041
:1014F0004FF0E020006920F004004FF0E021086187
:101500000920274908700846007800EB4001C1EB2C
:10151000C0104FF6FF7101EAC000224908807047F1
:10152000002120F07F401E4A127842434FF0E02312
:101530005A6100229A6101221A6100BF4FF0E02235
:10154000116901F001021AB101F48032002AF5D0CC
:1015500000224FF0E0231A619A617047002100B920
:10156000704720F07F400F4A128842434FF0E0233B
:101570005A6100229A6101221A6100BF4FF0E022F5
:10158000116901F001021AB101F48032002AF5D08C
:1015900000224FF0E0231A619A6100BFE0E70000EB
:1015A000280000202A00002010B586B00446012142
:1015B0000820FFF70DFB01218804FFF716FB182018
:1015C0008DF817004FF48060ADF8140003208DF8FB
:1015D000160005A93A48FFF73FF804208DF81700D8
:1015E0004002ADF8140005A93548FFF735F801941D
:1015F0000020ADF810000C20ADF80E000020ADF872
:101600000C00ADF80A00ADF8080001A92D48FFF75D
:1016100086FB01212B48FFF70EFC012240F22551E9
:101620002848FFF714FC27208DF8000001208DF8D2
:10163000030000208DF801008DF802006846FEF7D7
:1016400042FF06B010BD2DE9F04107460C46154695
:1016500000260DE014F8011B3846FFF759FC00BFC7
:1016600040213846FFF7C2FC0028F9D0701C86B232
:10167000AE42EFDBBDE8F0810FB430B5CBB005462C
:1016800001AC50A800904FF4947101A8009B4F9AB0
:1016900002F032FE002000900BE014F8011B2846F7
:1016A000FFF736FC00BF40212846FFF79FFC0028CB
:1016B000F9D020780028F0D14BB030BC5DF814FB95
:1016C000000C01400048004010B56448006820F458
:1016D0007000624908600846006840F440100860E5
:1016E00000205F4908601420FFF738FF01205D49A2
:1016F000C1F8B4011E20FFF713FF10BD10B5002480
:101700005648006820F47000544908600846006894
:1017100040F40000086004E0601CC4B20120FFF740
:10172000FFFE4F488038006808B1642CF4DB642C5D
:1017300001DB012010BD002404E0601CC4B20120C4
:10174000FFF7EEFE46488038006808B9642CF4DBE9
:10175000642C01DB0120EDE70020EBE710B500244D
:1017600004E0601CC4B20120FFF7DAFE3C48803878
:10177000006808B1642CF4DB002404E0601CC4B2EF
:101780000120FFF7CDFE36488038006808B9642C88
:10179000F4DB2820FFF7C4FE31488038006808B128
:1017A000012010BD0020FCE770B50024002506E0F4
:1017B0006006040EFFF7D2FF0443681CC5B2082D73
:1017C000F6DB204670BD7CB505460E46FFF77CFF74
:1017D000FFF794FFF8B9002405E0FFF7E5FF0DF8E7
:1017E0000400601CC4B2052CF7DB9DF800009DF8D6
:1017F000011008449DF8021008449DF803100844A5
:101800009DF80410884208D19DF8000030709DF8C2
:101810000200287001E001207CBD0020FCE708B533
:1018200001210820FFF7D4F94FF40050ADF8000073
:1018300010208DF8030003208DF802006946074848
:10184000001FFEF709FF4FF400510448001FFEF788
:10185000B0FFFFF739FFFFF751FF08BD040C01404F
:10186000B48121420080214208B501210820FFF700
:10187000AFF914208DF8030003208DF802004FF417
:101880008070ADF800006946FB48FEF7E5FE4FF4B6
:101890000070ADF800006946F748FEF7DDFE012252
:1018A0001102F548FEF789FF01225102F248FEF7C6
:1018B00084FF08BD10B501225102EF48FEF77DFFFD
:1018C00001221102EC48FEF778FF00224FF400716C
:1018D000E948FEF772FF00224FF48071E648FEF7F8
:1018E0006CFF10BD10B500224FF40071E248FEF706
:1018F00064FF01221102E048FEF75FFF012251025E
:10190000DD48FEF75AFF10BD70B50546002415E00E
:101910008020204100EA05024FF40071D648FEF70E
:101920004CFF01221102D448FEF747FF00224FF47A
:101930008071D148FEF741FF601CC4B2082CE7DB80
:1019400001221102CC48FEF738FF00224FF48071CB
:10195000C948FEF732FF70BD10B50446FFF7AAFF75
:101960007820FFF7D1FF0020FFF7CEFF2046FFF7DA
:10197000CBFFFFF7B7FF10BD10B50446FFF79AFF86
:101980007820FFF7C1FF4020FFF7BEFF2046FFF79A
:10199000BBFFFFF7A7FF10BD70B505460C4645F02D
:1019A000B000FFF7D9FF102141EA1410FFF7D4FF70
:1019B00004F00F00FFF7D0FF70BD70B500240EE0FB
:1019C00000212046FFF7E8FF002504E00020FFF794
:1019D000D3FF681CC5B2802DF8DB601CC4B2082C94
:1019E000EEDB70BD2DE9F04105460E461746721E2E
:1019F000D206110E6A1E5206100EFFF7CDFF00240C
:101A000009E0A7F120019D4A02EB0111085DFFF7F3
:101A1000B3FF601CC4B2082CF3DB721ED206110E99
:101A20006A1E012303EB4202D0B2FFF7B5FF002488
:101A30000BE0A7F12001914A02EB011204F1080129
:101A4000505CFFF799FF601CC4B2082CF1DBBDE8C5
:101A5000F0812DE9F04107460E461546002407E0C7
:101A60002A5D3019C1B23846FFF7BCFF601CC4B212
:101A7000285D0028F4D1BDE8F08110B502460120B0
:101A800000E050430B1EA1F10101FAD110BD2DE978
:101A9000F04780460E4617461D46002415E0281BD9
:101AA000411E0A20FFF7E9FFB7FBF0F00A21B0FB67
:101AB000F1F201FB120000F130093019C1B24A46BF
:101AC0004046FFF78FFF601CC4B2AC42E7DBBDE8C5
:101AD000F0872DE9F0478146884615461E46002DC1
:101AE00006DB2B2241464846FFF77CFF2F4605E0E8
:101AF0002D2241464846FFF775FF6F42002417E04C
:101B0000301B411E0A20FFF7B8FFB7FBF0F00A2197
:101B1000B0FBF1F201FB120000F1300A08EB040007
:101B2000401CC1B252464846FFF75CFF601CC4B27D
:101B3000B442E5DBBDE8F0872DE9F04781460E466B
:101B400090461F4600241DE0381B411E1020FFF761
:101B500094FFB8FBF0F000F00F050A2D08DA05F14C
:101B60003000C2B23019C1B24846FFF73BFF07E070
:101B700005F13700C2B23019C1B24846FFF732FF53
:101B8000601CC4B2BC42DFDBBDE8F0872DE9F04742
:101B900080460E4617461D46002412E0281B411EB3
:101BA0000220FFF76AFFB7FBF0F000F0010000F140
:101BB00030093019C1B24A464046FFF713FF601C96
:101BC000C4B2AC42EADBBDE8F08770B5002406E0A1
:101BD000002500E06D1CB5F57A7FFBD3641CB4F5DD
:101BE0007A7FF5D3FFF740FEAE20FFF7B5FED52094
:101BF000FFF7B2FE8020FFF7AFFEA820FFF7ACFE94
:101C00003F20FFF7A9FED320FFF7A6FE0020FFF735
:101C1000A3FE4020FFF7A0FEA120FFF79DFEC820F5
:101C2000FFF79AFEDA20FFF797FE1220FFF794FEE7
:101C30008120FFF791FECF20FFF78EFED920FFF71E
:101C40008BFEF120FFF788FEDB20FFF785FE3020BA
:101C5000FFF782FEA420FFF77FFEA620FFF77CFEA1
:101C60008D20FFF779FE1420FFF776FEAF20FFF7F7
:101C700073FEFFF7A2FE70BD000C0140A26C0008CD
:101C800000B587B001214802FEF7A2FF0121042020
:101C9000FEF79EFF4FF40040FEF7FEFE00208DF899
:101CA0001B000720ADF8180003208DF81A0006A9C4
:101CB0007F48FEF7D1FC0020019004904FF4602093
:101CC000039000208DF809008DF8080001208DF8A0
:101CD000140001A97748FFF70AFA01217548FFF7B8
:101CE00032FA7448FFF751FA00BF7248FFF752FA10
:101CF0000128FAD06F48FFF757FA00BF6D48FFF789
:101D000058FA0128FAD007B000BD10B504460723E1
:101D1000012221466748FFF782FA01216548FFF753
:101D200052FA00BF02216348FFF7BEFB0028F9D03A
:101D30006048FFF7DBFA10BD2DE9F84F0020FFF7F0
:101D4000E4FF0090009804F053FE81465A4904F0E5
:101D500055FD804604F0C4FC06464FF06632574BF2
:101D600004F0C0FB044604F033FA8246504604F007
:101D7000B7FC80464FF06632504B04F05BFA0646E3
:101D800000224F4B04F0AEFB044604F021FA8346D8
:101D9000584604F0F5FD80B2BDE8F88F2DE9F05FFC
:101DA00005460026B046002705E00220FFF7ADFFFC
:101DB0000644781CC7B2AF42F7DB284604F000FEA9
:101DC0008146304604F014FE8246494604F016FD72
:101DD00080464146384804F0EBFE8346394904F01A
:101DE0000DFD8246384904F017FE814604F0C8FD17
:101DF00084B2642C01DD642004E0002C01DA0020B0
:101E000000E0204604462046BDE8F09F2DE9FC5F37
:101E10000446002500202D4908600FE00120FFF74F
:101E200074FF804604F0E4FD0746294604F084FC74
:101E3000054626480068401C24490860234800687D
:101E4000A042EBDB204604F0BBFD0746394628469E
:101E500004F0D4FC0546284604F042FC07464FF047
:101E60006632164B04F03EFB0022194BCDE900010F
:101E700004F0E0F9824604F0ABF90646304604F07F
:101E80002FFC07464FF066320C4B04F0D3F9824624
:101E90000022104B04F026FBCDE9000104F098F974
:101EA0008146484604F06CFD80B2BDE8FC9F00000E
:101EB000000801400024014000F07F4566660A40AA
:101EC00000408F4000C04D450000C8422C0000205B
:101ED0000000B0400000594008B501210D20FEF778
:101EE00077FE01213848FEF788FC10208DF80300AA
:101EF00003208DF802001020ADF800006946334839
:101F0000FEF7AAFB10213148FEF755FC1020ADF872
:101F1000000069462E48FEF79FFB10212C48FEF773
:101F20004AFC4FF40040ADF8000069462748FEF730
:101F300093FB4FF400412548FEF73DFC4FF48050E1
:101F4000ADF8000069462148FEF786FB4FF480514A
:101F50001E48FEF730FC08BD10B5044624B1102120
:101F60001A48FEF726FC03E010211848FEF723FC70
:101F700010BD10B5044624B110211548FEF719FC18
:101F800003E010211248FEF716FC10BD10B5044600
:101F90002CB14FF400410D48FEF70BFC04E04FF468
:101FA00000410A48FEF707FC10BD10B504462CB1ED
:101FB0004FF480510548FEF7FCFB04E04FF48051DC
:101FC0000248FEF7F8FB10BD000230000008014097
:101FD000000C014010B502460B46C3EB0310810014
:101FE000A2F1190000EBC00404EB0010A1EB4000CB
:101FF00001B2B1F5487F01DA4FF4487140F6B830CC
:10200000814200DD014688B210BD10B54FF4A060DA
:10201000FEF754FAFFF76CFA4FF4E130FFF7C4FA19
:10202000FFF7FDFBFFF7D1FDFFF72AFEFFF754FF97
:1020300010BD1FB54FF0000800260020039002904D
:102040008146002400270025FFF7DFFF59A2012168
:102050000846FFF7FEFC02F045F859A201210846A8
:10206000FFF7F7FC03E04FF4FA70FFF777FA58A197
:1020700059A001F0D8FF0028F5D103E04FF4FA7021
:10208000FFF76CFA00F0E3F90028F7D1FFF795FCB1
:102090005DA201210846FFF7DCFC5FA201210220BE
:1020A000FFF7D7FC5EA201210320FFF7D2FC5EA25E
:1020B00001210420FFF7CDFC5DA209210420FFF7D8
:1020C000C8FC00F0B3FB73E008F1010080B2804669
:1020D000322862DB02A903A8FFF775FB40BB02238D
:1020E0009DF80C2003210120FFF7D1FC02239DF86D
:1020F00008200A210120FFF7CAFC40F6D3356420EE
:1021000095FBF0FA0223524607210320FFF7BFFC9C
:102110002E2209210320FFF765FC642095FBF0F1D6
:1021200000FB115A022352460A210320FFF7AFFC9D
:10213000FFF702FEC4B24048007840B9C82C03DD66
:102140000120FFF709FF02E00020FFF705FF4FF035
:102150001E090A20FFF75AFEC7B2032322460521B3
:102160000220FFF794FC02234A4606210420FFF7D1
:102170008EFC02233A460D210420FFF788FC2346FB
:102180004A46CDE900759DF808109DF80C0000F056
:102190001CFA4FF0000801F027FF002001F080FF3B
:1021A000064616B1304600F067FB0A20FFF7D6F965
:1021B0008AE700004E6574776F726B696E67000086
:1021C000436F6E6E656374696E672E2E2E0000007D
:1021D000434F4E4E4543540041542B4349505354B2
:1021E0004152543D22544350222C226D7174747319
:1021F0002E6865636C6F7564732E636F6D222C316E
:102200003838330D0A000000543A2020432020487B
:102210003A202025000000004C75783A00000000AC
:10222000677261696E3A000068756D693A00000076
:1022300070706D3A0000000030000020F0B58BB0E7
:10224000054600260024284602F051FAC7B20DB117
:102250001C2F02DA01200BB0F0BD06E0A85D01A939
:1022600088550020A855701CC6B2BE42F6DB00207F
:1022700001A988550026002455E001A8805D2B287F
:1022800010D008DC202814D023282ED0252825D0D3
:1022900026283FD130E02F2812D03D2833D03F28C8
:1022A00038D114E02819FCA102F040FAE01CC4B2B5
:1022B00036E02819F9A102F039FAE01CC4B22FE087
:1022C0002819F7A102F032FAE01CC4B228E028195C
:1022D000F4A102F02BFAE01CC4B221E02819F2A10B
:1022E00002F024FAE01CC4B21AE02819EFA102F0AF
:1022F0001DFAE01CC4B213E02819EDA102F016FA91
:10230000E01CC4B20CE02819EAA102F00FFAE01CAC
:10231000C4B205E001A8805D2855601CC4B200BFAE
:1023200000BF701CC6B2BE42A7DB0020285500BF0C
:1023300091E72DE9F04FC9B005460C4616461F46F9
:102340000DF5A47898E8000F0020489055B14CB1E5
:10235000D948864206D32FB1B9F1000F02D0BAF1A5
:10236000780F03DA012049B0BDE8F08F402118A8AA
:1023700002F04FFA384602F0BAF905903B4648AAF7
:102380004021009018A800F067FE482106A802F03E
:1023900040FABBF1000F09D0C8A03346C9A24821BA
:1023A0008DE8310006A801F0D7FF09E0C3A033464D
:1023B000CAA248218DE81101039506A801F0CCFFBF
:1023C000402128A802F025FA06A802F090F905900D
:1023D00018A802F08CF9049028A8009006AA18A862
:1023E000DDE9041300F0E4FC00204890402138A807
:1023F00002F00FFA28A802F07AF9059028AB48AA53
:102400004021009038A800F087FD38A8FFF716FF9C
:10241000BBF1000F0CD038A8A8A12B46B7A2CDE97C
:102420000046CDE902105146484601F095FF0CE008
:1024300038A8A2A12B46BF4ACDE901860094CDE978
:1024400003105146484601F087FF00208BE730B566
:10245000B3B000202F903090319032900125A02110
:1024600007AAB5A3CDE90032CDE90210B4A3C04A52
:10247000C0A1C3A0FFF75DFF2FA800210291039127
:10248000CDE90410084601210B02ABA2CDE90010F2
:1024900007A9B8A000F041FF20BB309A91B22F9855
:1024A00001F0E7FDFA2001F0FBFD0446BCB1204637
:1024B00000F0FEFE022812D1204601F093F8062813
:1024C00006D2DFE800F003060708090A002505E048
:1024D00000BF00BF00BF00BF00BF00BF00BF2FA8EC
:1024E00000F09EFE284633B030BD2DE9F04F91B08C
:1024F00007460C4690461D46DDF868901C9E4FF43A
:102500008071384602F063F9A0A1384602F0CBF89A
:102510002246A3A101A801F009FF01A9384602F053
:1025200005F9A4A1384602F001F94246A2A101A88A
:1025300001F0FCFE01A9384602F0F8F89DA13846EA
:1025400002F0F4F82A46A1A101A801F0EFFE01A9CA
:10255000384602F0EBF897A1384602F0E7F84A4611
:102560009FA101A801F0E2FE01A9384602F0DEF8C1
:1025700090A1384602F0DAF89EA101A81B9A01F05A
:10258000D5FE01A9384602F0D1F88AA1384602F0FA
:10259000CDF8642096FBF0F100FB116A96FBF0FB8E
:1025A00053465A4698A101A801F0C0FE01A9384639
:1025B00002F0BCF89CA1384602F0B8F8384602F0A8
:1025C00096F880B211B0BDE8F08F2DE9F04FC7B09A
:1025D00006460F4690469946DDF844B1DDF840A125
:1025E00000204390449045904690002400254FF4ED
:1025F000807103A802F00DF943463A46314603A81C
:102600008DE8000EFFF771FF04B2E4B143A8002388
:10261000224649A1009057A001F0D5F898B908E0EA
:1026200003A8415D449A501C449043988154681C0F
:1026300005B2A542F4DB449A91B2439801F019FD2A
:1026400043A800F0EDFD47B0BDE8F08F70B588B04D
:1026500005460C4600200490059006900790204601
:1026600002F045F8064604A80121002200923346F4
:10267000CDE901210390224629460A2000F0C1FF3E
:1026800038B9059A91B2049801F0F3FC04A800F05F
:10269000C7FD08B070BD0000253242002532300071
:1026A00025324600253346002532350025323300D9
:1026B00025323600253344009554415D73686131FD
:1026C0000000000025640A25730A70726F64756348
:1026D00074732F25730A25730000000025640A25F2
:1026E000730A70726F64756374732F25732F64653A
:1026F00076696365732F25730A2573007665727397
:10270000696F6E3D2573267265733D70726F6475D7
:102710006374732525324625732665743D2564262A
:102720006D6574686F643D2573267369676E3D251A
:102730007300000050740008313131310000000096
:102740004D6C4E77516A4650596A647A62484A46DF
:10275000643152306445566C553030776258686D3C
:10276000637A566F4E4739566346493D0000000074
:1027700000CF9D74394E61583935596C7165000030
:10278000323031382D31302D333100007B226964F5
:10279000223A3132332C226470223A7B000000004E
:1027A0002274656D70223A5B7B2276223A25647D25
:1027B0005D0000002C0000002268756D69223A5B04
:1027C0007B2276223A25647D5D00000022456875F3
:1027D0006D69223A5B7B2276223A25647D5D00009A
:1027E000224C7578223A5B7B2276223A25647D5D05
:1027F000000000002250504D223A5B7B2276223AA4
:1028000025647D5D0000000022677261696E5F686B
:10281000756D69223A5B7B2276223A25642E25303B
:1028200032647D5D000000007D7D000000B595B044
:102830000020119012901390149003A80290AFF210
:102840000810AFF2D00372A23821009003A801F063
:1028500083FD11A8012302AA00210090142001F099
:10286000BCF838B9129A91B2119801F002FC11A883
:1028700000F0D6FC15B000BD2DE9F043A9B08146AB
:1028800000202890279026902590249000278046AD
:1028900000250024484600F00BFD0746032F04D016
:1028A000042F3AD0092F3DD138E05E4824A925AA4B
:1028B00028ABCDE90021029026AA27A9484601F0BD
:1028C000D0F98046B8F1000F26D1002656A12798EE
:1028D00001F0D7FE0646F6B12F21304601F0B5FED5
:1028E0000646761C2422314603A801F02BFF002067
:1028F0008DF8300003A8AFF2C011AFF288134DA2DB
:10290000CDE9001050210DA801F026FD50A10DA821
:10291000FFF79CFE00BF00BF00BF06E0484601F085
:10292000DBF802E04FF0FF3800BF00BF01F05CFBB6
:1029300008F1010010B929B0BDE8F0833A212898C8
:1029400001F083FE0546002D55D06D1C05E015F8FD
:10295000012B2046641C21A90A542878302802DB68
:1029600028783928F3DD002021A9085521A801F095
:102970005FFE044638A1289801F083FE60B1012073
:1029800036490870012C02D1FFF7E6FA33E014BB98
:102990000020FFF7E1FA2EE031A1289801F071FE46
:1029A00050B1012C03D10120FFF7E3FA23E094B9E1
:1029B0000020FFF7DEFA1EE02BA1289801F061FE4F
:1029C00050B1012C03D10120FFF7E0FA13E014B954
:1029D0000020FFF7DBFA0EE025A1289801F051FE58
:1029E00048B1012C03D10120FFF7DFFA03E014B94D
:1029F0000020FFF7DAFA0F2F01D0032F05D1279817
:102A000001F053FC289801F050FC00BF93E7000050
:102A1000247379732F25732F25732F636D642F23F0
:102A20000000000038000020726571756573742F16
:102A300000000000247379732F25732F25732F63F3
:102A40006D642F726573706F6E73652F2573000050
:102A50006F6A626B000000006C656400300000204B
:102A600062757A7A657200006D6F746F7200000093
:102A700066616E00F0B50446142C06DA01EA020520
:102A800023EA010685EA060019E0282C04DA81EA27
:102A9000020787EA030012E03C2C0ADA01EA020589
:102AA00001EA030787EA050602EA030787EA060048
:102AB00005E0502C03DA81EA020787EA0300F0BD43
:102AC0000146142901DAFE480AE0282901DAFD4806
:102AD00006E03C2901DAFC4802E0502900DAFB4814
:102AE0007047F0B5024601209040441EE54301EADC
:102AF000050020FA02F601EA0400C2F1200C00FAF7
:102B00000CF746EA07031846F0BDF0B50246C2F1DD
:102B1000200C012000FA0CF0441EE54301EA0400F9
:102B200000FA02F601EA0500C2F1200C20FA0CF7C7
:102B300046EA07031846F0BD2DE9F04FDDB0074621
:102B40008A4615460AF1080909F101094FEACA0047
:102B50005B9048464FEAE97109EB91618E11484656
:102B60004FEAE97109EB91618911A9EB81115C913F
:102B70005C98002800DD761C5C98C0F14000814420
:102B8000D04604E0002007F8080008F10108B8EB7F
:102B9000861FF7DB802007F80A000121C1EB8611B0
:102BA0005B9878545B98C0F307200221C1EB861133
:102BB00078545B98C0F307400321C1EB8611785429
:102BC0005B98000E0421C1EB86117854C0485690E2
:102BD000C0485790BE48C0435890BE48C043599023
:102BE000BD485A904FF00008A5E0002452E0102C98
:102BF00032D24FEA881000EB8400385C000601A94D
:102C000041F824004FEA881000EB8400401C385C37
:102C100051F824104FF4803202FB001001A941F852
:102C200024004FEA881000EB8400801C385C51F8C7
:102C30002410121202FB001001A941F824004FEAEF
:102C4000881000EB8400C01C385C51F82410084444
:102C500001A941F824001CE0502C1AD2E01E01AA60
:102C600052F82000A4F1080201AB53F82220504092
:102C7000A4F10E0253F822205040A4F1100253F8A0
:102C8000222080EA02010120FFF73FFF01A941F85D
:102C90002400641C502CAAD35698559057985490F1
:102CA00058985390599852905A98519000242AE07D
:102CB00005205599FFF729FF83462046529B539ADA
:102CC0005499FFF7D7FE5844009051990098084452
:102CD00000902046FFF7F4FE00990844009001A8F8
:102CE00050F824100098084400905298519053983E
:102CF00052901E205499FFF708FF53905598549016
:102D000000985590641C502CD2D35699559808447D
:102D10005690579954980844579058995398084496
:102D2000589059995298084459905A995198084482
:102D30005A9008F10108B045FFF657AF5698E87071
:102D40005698000AA8705698000C68705698000EA5
:102D500028705798E8715798000AA8715798000C86
:102D600068715798000E28715898E8725898000AB0
:102D7000A8725898000C68725898000E28725998DA
:102D8000E8735998000AA8735998000C6873599809
:102D9000000E28735A98E8745A98000AA8745A9832
:102DA000000C68745A98000E28745DB0BDE8F08F6E
:102DB0002DE9F04FADF58E5D07460E4692469846DA
:102DC0000DF58050D0F8E49140254FF0360B5C2192
:102DD000C0F8BC11002405E0002041F27C116944D8
:102DE0000855641C402CF7DBAE421FD0AE4210DD0C
:102DF0004A4631463846FFF79FFE002406E019F8A0
:102E0000040041F27C1169440855641C142CF6DB63
:102E100016E0AE4214DA002405E0385D41F27C1180
:102E200069440855641CB442F7DB09E0002405E05E
:102E3000385D41F27C1169440855641CAC42F7DBF3
:102E400000240AE041F27C106844005D80EA0B0037
:102E500041F23C1169440855641C402CF2DB00240B
:102E600006E041F23C106844005D1FA90855641C4F
:102E7000402CF6DB002406E01AF804101FAA04F127
:102E800040001154641C4445F6DB08EB05014A463A
:102E90001FA8FFF751FE00240DE041F27C116944A8
:102EA000095D0DF58050D0F8BC01414041F2FC02B3
:102EB0006A441155641C402CEFDB002415E000002F
:102EC0009979825AA1EBD96EDCBC1B8FD6C162CA3C
:102ED0000123456789ABCDEFF0E1D2C341F2FC009D
:102EE0006844005D0AA90855641C402CF6DB0024E8
:102EF00006E019F804100AAA04F140001154641CF9
:102F0000142CF6DB4A4605F114010AA8FFF714FE5B
:102F10000DF58E5DBDE8F08F2DE9F04F074689462F
:102F2000099C00250026AC46A846AA4600211CB9EB
:102F300000201060BDE8F08F0320B4FBF0F04FF0EC
:102F4000030BB4FBFBFE0BFB1E4BBBF1000F02D0CF
:102F50004FF0010B01E04FF0000B00EB0B06B6F158
:102F6000804F05D34FF0FF3010606FF02900E1E78C
:102F7000B600701C814500D327B9701C10606FF03B
:102F80002900D7E70320B4FBF0F000EB4006002552
:102F9000394629E013F801CB13F8018B13F801AB84
:102FA00087484FEA9C0B10F80B0001F8010B4FEA21
:102FB0000C1000EB281000F03F00DFF804B21BF803
:102FC000000001F8010B4FEA880000EBAA1000F0A6
:102FD0003F001BF8000001F8010B0AF03F001BF84E
:102FE000000001F8010BED1CB542D3D3A5422DD250
:102FF00013F801CB681CA04202D213F8010B00E0C9
:10300000002080466E48CCF3850B10F80B0001F8C9
:10301000010B4FEA0C1000EB281000F03F00DFF826
:10302000A0B11BF8000001F8010B681CA04207D2F8
:103030003F2000EA88001BF8000001F8010B02E0C5
:103040003D2001F8010B3D2001F8010BC81B106069
:103050000020087000BF6DE72DE9F047074689465C
:103060009046DDF820C00021002200240026002523
:10307000002004460246014645E0002601E0491CC6
:10308000761C614502D2585C2028F8D0614500D1F9
:103090003BE0ACEB0100022807D3585C0D2804D1BB
:1030A000481C185C0A2800D12CE0585C0A2800D182
:1030B00028E01EB16FF02B00BDE8F087585C3D287A
:1030C00006D1601C0446022802D96FF02B00F3E7FA
:1030D000585C7F2806DC585CDFF8E8A01AF800008E
:1030E0007F2802D16FF02B00E6E7585CDFF8D4A010
:1030F0001AF80000402803DA14B16FF02B00DBE768
:10310000521C00BF491C6145B7D300BF1AB900204B
:10311000C8F80000D0E7D00800EB40004FEA400AB2
:1031200002F0070000EB40004000C01D0AEBD00297
:10313000121B0FB1914504D2C8F800206FF029008E
:10314000BAE703240020064602463D4631E01878DF
:103150000D2805D018780A2802D01878202800D128
:1031600025E01878DFF85CA01AF80000402801D1AB
:10317000012000E00020241A1878DFF848A01AF88F
:10318000000066F39F100646501C024604280DD12D
:10319000002214B1300C05F8010B012C02D9300AC1
:1031A00005F8010B022C01D905F8016B00BF491E7F
:1031B0005B1C0029CBD1E81BC8F8000000207BE78E
:1031C00092720008D272000870B504460E460025BF
:1031D000206898B901202073304601F037F820604C
:1031E0002068E0B100206060A66003E00020216854
:1031F00048556D1CA068A842F8D810E00220207342
:1032000003E00020216848556D1CA068A842F8D84A
:1032100000206060A068B04201D20020206070BD34
:1032200010B50446207B012802D1206801F03DF84A
:10323000002020606060A060207310BD0246002363
:1032400001230DE002F07F000870D2092AB108784E
:1032500040F080000870491C01E0184670475B1C74
:10326000042BEFDD4FF0FF30F8E7F0B504460D46D4
:103270002646012300201060002114E0775C07F04F
:103280007F07106807FB03001060705C00F080008F
:1032900008B9481CF0BDDB01B3F5001F02D36FF085
:1032A0000100F7E7491CA942E8DB4FF0FF30F1E7E6
:1032B000F8B50446FF2720780511012D01DB0E2DFE
:1032C00001DD3846F8BD032D24D1002000906A4668
:1032D0000421601CFFF7C9FF2044461C0098022807
:1032E00003D3207800F0010008B1FF20EAE77078EE
:1032F000317840EA0120801C0099884201D9FF20E2
:10330000E0E7F8A1B01C01F0BCF908B10F2700E01C
:10331000032700E02F463846D4E72DE9FF4F83B05E
:1033200082468B469146159C0025002002900F276F
:103330000190484601F0DBF90FFA80F8B9F1000F6F
:1033400003D1012007B0BDE8F08F08F10200384436
:1033500087B2109808B145F00205129878B145F08F
:103360000405129801F0C3F9C0B20290139801F05D
:10337000BEF901460298001D0844384487B21198EE
:1033800020B1012804D0022808D104E000BF07E0E2
:1033900045F00C0504E045F0140501E00220D1E7FA
:1033A00000BF149808B145F02405BAF1000F02D00F
:1033B000BBF1000F01D10320C4E745F0C005504622
:1033C00001F095F90646584601F091F93044001D88
:1033D000384487B239462046FFF7F6FE206808B920
:1033E0000420AFE73946206801F0F1F91021626846
:1033F000501C606020688154D4E90023D118781FE4
:10340000FFF71CFF00B201900198002804DA204663
:10341000FFF706FF052095E76168019808446060A2
:1034200000216268501C6060206881540421626839
:10343000501C6060206881544D216268501C60609F
:103440002068815451216268501C6060206881545A
:1034500054216268501C6060206881546268501C6E
:1034600060602068815404216268501C606020689C
:1034700081546168481C6060206845540698010AC0
:103480006268501C6060206881540698C1B262680E
:10349000501C606020688154C8F307216268501C8A
:1034A0006060206881546268501C6060206800F889
:1034B0000280D4E9001288184246494601F0CFF84C
:1034C00060684044606005F00400B8B300261398BB
:1034D00008B986A01390129801F009F986B2310A52
:1034E0006268501C6060206881546268501C606093
:1034F00020688654D4E9001288183246129901F0E7
:10350000AEF8606830446060139801F0F0F886B25D
:10351000310A6268501C6060206881546268501CE7
:10352000606020688654D4E90012881832461399E6
:1035300001F095F860683044606000BF05F08000DD
:10354000C8B1504601F0D3F886B2310A6268501C07
:103550006060206881546268501C606020688654F6
:10356000D4E9001288183246514601F078F86068B4
:103570003044606000BF05F04000C8B1584601F01B
:10358000B6F886B2310A6268501C606020688154C7
:103590006268501C606020688654D4E90012881864
:1035A0003246594601F05BF860683044606000BF05
:1035B0000020C7E610B5044602212046FFF704FEAE
:1035C000206808B9012010BDE0216268501C6060CD
:1035D0002068815400216268501C6060206881541A
:1035E0000020F0E701464878022801D0012070470A
:1035F000887810B18878012801D1C878F7E7FF20D2
:10360000F5E72DE9FF4F83B0834617469946139C93
:10361000002500260020029001908046BBF1000F9B
:1036200003D1012007B0BDE8F08F00260AE004981E
:10363000805D232803D00498805D2B2801D10220CF
:10364000F0E7761C0498805D0028F0D148F030083F
:10365000119808B148F0010806EB0900851C109884
:1036600020B1012804D002280AD105E000BF09E0FA
:1036700048F00208AD1C05E048F00408AD1C01E06C
:103680000320CFE700BF67B33878022821D14FF07D
:10369000000A00BF50460AF1010A385C7D28F9D1C2
:1036A000AAF1030A0AF1070002900298A9EB000AA6
:1036B000E81CA0EB0A012046FFF786FD206808B948
:1036C0000420AFE7EA1CA2EB0A01206801F07FF8B2
:1036D0001FE0691D2046FFF777FD206840B90420F0
:1036E000A0E70AE02463726571000000000000009A
:1036F000691D206801F06BF80BE0691D2046FFF79B
:1037000063FD206808B904208CE7691D206801F07A
:103710005EF86168481C6060206800F80180D4E9A8
:10372000000281182846FFF789FD019001980028C2
:1037300004DA2046FFF774FD052073E761680198FD
:1037400008446060C6F307216268501C606020680E
:1037500081546268501C606020688654D4E900126D
:1037600088183246049900F07AFF6068304460603F
:10377000109860B14FEA1B216268501C606020689D
:1037800081546268501C6060206800F802B0C7B1C4
:10379000387802280BD1D4E9001288183946029AE9
:1037A00000F0D0FF616802980844606009E0D4E945
:1037B000001288184A46394600F0C4FF6068484441
:1037C000606000202EE72DE9F04190B004460D46E0
:1037D00016469846169F2346F7A2302104A8009566
:1037E00000F0BAFD01200021CDE9000133460A4670
:1037F00004A9CDE902070A20FFF703FF18B1012051
:1038000010B0BDE8F0810020FAE72DE9F04F85B057
:1038100080460D4691460120049000270026002492
:103820004FF0000A404600F062FF00F10D0B5846D1
:1038300000F00CFD07461FB9049805B0BDE8F08FF5
:103840004246E3A1384600F071FD384600F04FFFD4
:10385000C6B2F01D00EB050AAAEB050000F0F6FC6D
:10386000044624B9384600F020FD0498E5E702201C
:10387000207000206070A67032463946E01C00F0CF
:1038800061FF290EF01C2154C5F30741301D21545E
:10389000C5F30721701D2154B01D255401200021BE
:1038A000CDE9000153462246CDA1CDE902090A2007
:1038B000FFF7A7FE08B900200490384600F0F5FC99
:1038C000204600F0F2FC0498B7E72DE9F843804663
:1038D0000C4615461E462F2108F1060000F0B5FEE5
:1038E00007460020009017B90120BDE8F8837F1C2F
:1038F0006A46042108F10100FFF7B7FC252000F01B
:10390000A5FC2060206808B90220EEE72521206888
:1039100000F05DFF24223946206800F013FF2437B1
:1039200000982C3830803188481C00F08FFC2860CB
:10393000286820B9206800F0B8FC0320D5E7328859
:10394000511C286800F043FF32883946286800F08F
:10395000F9FE0020C9E72DE9FF5F07460D469046B6
:10396000384600F0C4FE86B2284600F0C0FE1FFABA
:1039700080FA4FF00009F01D00F068FC04461CB905
:10398000012004B0BDE8F09FF11D204600F01FFFAC
:103990009CA0016821608088A0803246394620467C
:1039A00000F05DFE284600F0A2FE834601200021C3
:1039B00000915B462A46CDE90208019121460A2082
:1039C000FFF71FFE10B94FF0000901E04FF00109A9
:1039D000204600F06AFC4846D3E72DE9FF5F8046A9
:1039E000174699460E9C0026B246B3460025B8F10C
:1039F000000F03D1012004B0BDE8F09F0BE057F8A1
:103A0000250008B90220F6E757F8250000F06FFE00
:103A10000644681CC5B24D45F1DB09EB4900801C2A
:103A200000EB060A0AF105012046FFF7CDFB2068EE
:103A300008B90320DFE782216268501C60602068BB
:103A40008154D4E9000281185046FFF7F7FB0FFAC2
:103A500080FBBBF1000F04DA2046FFF7E1FB0420F6
:103A6000C9E76068584460604FEA18216268501CDA
:103A70006060206881546268501C6060206800F8B3
:103A80000280002524E057F8250000F030FE0646AD
:103A9000C6F307216268501C606020688154626828
:103AA000501C606020688654D4E90023D01857F871
:103AB0002510324600F0D3FD606830446060019804
:103AC000C1B26268501C606020688154681CC5B235
:103AD0004D45D8DB00208EE70146FF208A78A2B949
:103AE000CA78142A11D10A7932B1012A05D0022AE2
:103AF00004D0802A06D103E000BF00BF002003E00D
:103B0000012001E0022000BF00BF70472DE9F05FF7
:103B100080460F4691461C460026B246B346002515
:103B2000B8F1000F02D10120BDE8F09F0BE057F87B
:103B3000250008B90220F7E757F8250000F0D7FD67
:103B40000644681CC5B24D45F1DB022000EB49007C
:103B500000EB060A0AF105012046FFF735FB206855
:103B600008B90320E0E7A2216268501C6060206869
:103B70008154D4E9000281185046FFF75FFB0FFA29
:103B800080FBBBF1000F04DA2046FFF749FB04205D
:103B9000CAE76068584460604FEA18216268501CA8
:103BA0006060206881546268501C6060206800F882
:103BB0000280002548E00000247379732F25732FBD
:103BC00025732F64702F706F73742F6A736F6E007C
:103BD0007B2264735F6964223A222573227D000090
:103BE000247379732F376255643932344931762F13
:103BF00054455354312F64702F706F73742F6A7350
:103C00006F6E000024637273702F000057F8250058
:103C100000F06DFD0646C6F307216268501C606027
:103C2000206881546268501C606020688654D4E922
:103C30000023D01857F82510324600F010FD6068B8
:103C400030446060681CC5B24D45DFDB00206BE787
:103C5000014601208A781AB9CA781E2A00D10020AC
:103C600070472DE9FC5F81460D4614461E46DDE98E
:103C70000C8B99F8000000F00F0A002001900AF068
:103C800008000090CAF341008BF8000001AA04214B
:103C900009F10100FFF7E9FA4844471C019802289E
:103CA00002D30AF0010010B1FF20BDE8FC9F787834
:103CB000397840EA012020802088801C01998842C0
:103CC00001D9FF20F1E7AFF2E451B81C00F0D9FCB4
:103CD00008B10F20E9E79BF8000020B101283DD092
:103CE000022877D13BE0009808B1FF20DDE721886A
:103CF000481C00F0ABFA2860286808B9FF20D4E718
:103D00002288511C286800F062FD2288B91C2868AE
:103D100000F018FD0198801E2188401AA8F80000C4
:103D2000B8F80010481C00F091FA3060306820B9F3
:103D3000286800F0BAFAFF20B7E7B8F80020511C55
:103D4000306800F044FDB8F80020B4F800C0BB1C97
:103D50000CEB0301306800F0F5FC4FE000BF208859
:103D6000801C0199884201D9FF209EE72088C01C51
:103D7000395C2088801C385C41EA00210E98018063
:103D80000E9808B9FF2090E72188481C00F05EFAE1
:103D90002860286808B9FF2087E72288511C286816
:103DA00000F015FD2288B91C286800F0CBFC0198B2
:103DB000001F2188401AA8F80000B8F80010481C1D
:103DC00000F044FA3060306828B9286800F06DFAD5
:103DD000FF206AE710E0B8F80020511C306800F0BE
:103DE000F6FCB8F80020B4F800C03B1D0CEB030152
:103DF000306800F0A7FC01E0FF2056E700BF2B2150
:103E0000284600F022FC20B92321284600F01DFCA2
:103E100008B1FF2049E7002047E770B505460C468A
:103E200004212046FFF7D0F9206808B9012070BDB1
:103E300040216268501C60602068815402216268E1
:103E4000501C60602068815429126268501C6060B8
:103E5000206881546268501C60602068855400208E
:103E6000E5E701464878022801D0012070478878AC
:103E700020B9C8780A2801D10020F7E70120F5E72A
:103E800070B505460C4604212046FFF79DF92068D1
:103E900008B9012070BD50216268501C6060206824
:103EA000815402216268501C60602068815429128C
:103EB0006268501C6060206881546268501C6060B9
:103EC000206885540020E5E701464878022801D0A3
:103ED00001207047887820B9C8780A2801D10020CD
:103EE000F7E70120F5E770B505460C4604212046AA
:103EF000FFF76AF9206808B9012070BD6221626885
:103F0000501C60602068815402216268501C60600F
:103F10002068815429126268501C606020688154B6
:103F20006268501C6060206885540020E5E7024606
:103F30005078022801D0012070479078B0EB112F03
:103F400005D1D078CBB2984201D10020F4E701200E
:103F5000F2E770B505460C4604212046FFF734F918
:103F6000206808B9012070BD70216268501C606033
:103F70002068815402216268501C6060206881546E
:103F800029126268501C6060206881546268501C6D
:103F90006060206885540020E5E7014648780228E3
:103FA00001D001207047887820B9C8780A2801D14B
:103FB0000020F7E70120F5E710B50446022120466E
:103FC000FFF702F9206808B9012010BDC02162681E
:103FD000501C60602068815400216268501C606041
:103FE000206881540020F0E710B54FF40071764846
:103FF00000F0EDFB00207549088010BD7348008873
:1040000008B90120704771480088714909888842C1
:1040100003D100206D490880F4E76C4800886C49A2
:1040200008800120EEE72DE9F04104460D46C82640
:10403000204600F05CFB87B23A4621466548FDF712
:1040400002FB0FE0FFF7DAFF48B929465E4800F0AF
:1040500018FB20B1FFF7C8FF0020BDE8F0810A205F
:10406000FDF77CFA301EA6F10101CEB2EAD10120A3
:10407000F3E730B589B004460D46FFF7B5FF2A4691
:1040800055A101A800F052F957A101A8FFF7CBFFF5
:1040900020B92A4621464F48FDF7D5FA09B030BD70
:1040A00070B50546002400BFFFF7A8FF80B94FA1F7
:1040B000454800F0E6FA044654B13A21204600F0A3
:1040C000C4FA044614B1641C204670BD0020FCE70D
:1040D0000520FDF743FA281EA5F101018DB2E3D1B9
:1040E00000BFF2E708B501210420FCF771FD1020A4
:1040F0008DF803002020ADF8000003208DF80200A9
:1041000069463C48FCF7A8FA002220213948FCF710
:1041100054FBFA20FDF722FA012220213548FCF752
:104120004CFB4FF4FA70FDF719FAFFF75DFF03E05F
:104130004FF4FA70FDF712FA2FA130A0FFF773FFCA
:104140000028F5D103E04FF4FA70FDF707FA2AA131
:104150002CA0FFF768FF0028F5D103E04FF4FA70B8
:10416000FDF7FCF924A12BA0FFF75DFF0028F5D196
:1041700003E04FF4FA70FDF7F1F92AA12BA0FFF745
:1041800052FF0028F5D108BD10B540F22551114865
:10419000FCF742FFB8B10D480088B0F5007F02D3AC
:1041A00000200A4908800B48001D0088C1B207485A
:1041B00002880088401C054B188003488154202148
:1041C0000448FCF720FF10BD400000203A0000200A
:1041D0003C0000200048004041542B4349505345C7
:1041E0004E443D25640D0A003E0000004950442C19
:1041F00000000000000801404F4B000041540D0A30
:104200000000000041542B43574D4F44453D310DB4
:104210000A00000041542B4357444843503D312C81
:10422000310D0A00474F54204950000041542B43A0
:10423000574A41503D226573703332222C22373762
:10424000373737373738220D0A00000070B5064679
:1042500000F00AFB056806F10B0020F00704B442E9
:104260009CBF002070BD2B466A68BAB11068A0429E
:1042700010D304F1080188423CBF5068586007D34E
:104280005168101941601168091B01605860146081
:10429000101D70BD13465268002AE7D121462846FA
:1042A00000F0EEFA0028DED170BD70B50446051F9F
:1042B00000F0DAFA0068002C14BF446870BD002CCE
:1042C00018BFAC423CBF20466468F8D301680A18A6
:1042D000AA4218BF456003D12A680546114401600F
:1042E00028684119A1421CBF6C6070BD616869609B
:1042F00021680844286070BD7CB51D4616460C0038
:10430000009001D02044401E074B7B442A4669465A
:104310000190304600F083FB05461CB10020694641
:1043200000F090FB28467CBD410700000FB41CB58F
:10433000084B06AA7B4469460090059800F06FFB85
:1043400004460020694600F07DFB20461CBC5DF859
:1043500014FB00000D0700000FB47CB50C0009AA87
:10436000009001D02044401E084B7B4469460190D8
:10437000089800F054FB05461CB10020694600F087
:1043800061FB28467CBC5DF814FB0000E1060000E0
:1043900070B5044685690068C10601D5302600E085
:1043A0002026C00707D070BDD4E9012130469047D0
:1043B000206A401C20626D1EF6D570BD70B50446A3
:1043C00085690078C00707D170BDD4E9012120209C
:1043D0009047206A401C20626D1EF6D570BD70B5F6
:1043E0000C460546012A05D02878800600D5EA69E2
:1043F000002302E0012305E05B1C934202D2E05C53
:104400000028F9D1A869E618C01AA861286A1844DA
:1044100028622846FFF7BCFF04E0D5E9012114F823
:10442000010B9047B442F8D32846FFF7C7FF70BD91
:104430002DE9F0410646002410687529314616A57D
:1044400010D000F067FA002802DA404213A507E016
:1044500031688A0701D512A502E0490704D511A5E4
:10446000012401E000F05FFA00210A2206F124078E
:1044700009E0B0FBF2FCB0FBF2F302FB1C003030B1
:1044800078541846491C0028F3D123462A46304662
:10449000BDE8F04100F050BA000000002D0000001F
:1044A0002B000000200000002DE9F05F8946044643
:1044B0004FF0000ADFF874B1FB44C0F820A020469A
:1044C000E1688847002874D0252806D0D4E9012166
:1044D0009047206A401C2062F1E700265F46204694
:1044E000E16888472028054607DB312D05D2781979
:1044F00010F8200C08B10643F1E7B00701D526F00B
:104500000406C4F81CA00027C4F818A02A2D09D05E
:10451000284601F02AFE38B304EB8708303DC8F87E
:10452000185019E059F8041B204604EB87029161EA
:10453000E1688847012F054618D1E069002820DA94
:1045400026F020061DE0D8F8180000EB800005EBEF
:1045500040003038C8F818002046E1688847054612
:1045600001F003FE0028EED1012F0AD02E2D08D134
:104570002046E16888477F1C0546022F46F020064A
:10458000C4DBA069002803DA404246F00106A061BE
:10459000F00701D026F010066C2D0BD0682D09D045
:1045A0004C2D39D06A2D35D0742D35D07A2D33D09D
:1045B00016E038E0E1682F4620468847B8420546B5
:1045C00009D16C2F26D04FF48060E1680643204665
:1045D0008847054604E06C2F1AD04FF480700643DC
:1045E0000DB3A5F14100192802D8203546F4006624
:1045F0004A462946204626604E46FBF7D3FD80B149
:1046000001280BD0F61D26F0070000F1080956E737
:104610004020E4E78020D8E70020D6E706F104092F
:104620004DE7284652E7206ABDE8F09F962E00002D
:1046300070B5064600F01CF90468054630460A22AB
:10464000002100F041FB2C6070BD401ECAB210F882
:10465000011F8A4202D00029F9D10020704710B50D
:10466000431E13F8014F002CFBD105E011F8014B5C
:10467000002C03F8014B03D0521EF7D20021197011
:1046800010BD30B505460B462A4613F8014B12F80B
:10469000010B08B1A042F8D01CB1002802D06D1C5B
:1046A000F1E7284630BD40EA0103024630B59B07DA
:1046B00010D14FF0013400E008C208C91D1B9D4312
:1046C00015EAC41FF8D013F0FF0102F8011B0DD04A
:1046D0001B0AF8E711F8013B002B02F8013B05D05B
:1046E00011F8013B002B02F8013BF3D130BD10B5AE
:1046F000431C02E010F8011B71B18107FAD14FF0A1
:10470000013202C88C1A8C4314EAC211F9D0C01AC3
:104710000A0603D0C01E10BDC01A10BD0A0401D085
:10472000801E10BD0902FCD0401E10BD421E12F8B2
:10473000013F002BFBD111F8013B002B02F8013B9C
:10474000F9D17047032A40F2308010F0030C00F0DA
:10475000158011F8013BBCF1020F624498BF11F8BB
:1047600001CB00F8013B38BF11F8013BA2F1040274
:1047700098BF00F801CB38BF00F8013B11F00303EC
:1047800000F0DA82083AC0F0088051F8043B083A99
:1047900051F804CBA0E80810F5E7121D5CBF51F8F2
:1047A000043B40F8043BAFF30080D20724BF11F86C
:1047B000013B11F801CB48BF11F8012B24BF00F8D1
:1047C000013B00F801CB48BF00F8012B70474FF0C8
:1047D00000020429C0F0128010F0030C00F01B80CE
:1047E000CCF1040CBCF1020F18BF00F8012BA8BFDC
:1047F00020F8022BA1EB0C0100F00DB85FEAC17CA0
:1048000024BF00F8012B00F8012B48BF00F8012B52
:1048100070474FF0000200B5134694469646203983
:1048200022BFA0E80C50A0E80C50B1F12001BFF469
:10483000F7AF090728BFA0E80C5048BF0CC05DF8CF
:1048400004EB890028BF40F8042B08BF704748BF1D
:1048500020F8022B11F0804F18BF00F8012B704791
:1048600070477047704700000048704748020020BA
:1048700000487047400200207047704770477047FB
:1048800038B504460A4600206946AFF30080002888
:1048900008BF38BD02460099204600F08BFA01207F
:1048A00038BD012000F0F7BEF8B5AFF30080054633
:1048B00000200C46102000BF0646A819A0420DD9C2
:1048C000324669460020AFF30080070008BF00F0C1
:1048D000E2FE0098A04218BF0546C419FFF7C4FFC6
:1048E00005600746F01D20F007004619284600F035
:1048F0000AF8B44208BFF8BDA21B31463868BDE8CB
:10490000F84000F057BA00210160C0E9011070477B
:104910001020704709684A0501D540B27047C905A3
:10492000FCD500B2704709684A0501D5C0B270478E
:10493000C905FCD580B270472DE9F0470D46994670
:104940009246044600F124080168880604D5E0690F
:1049500021F01001216000E00120A84201DD471B89
:1049600000E00027A1697A1902EB0900081AA0618A
:104970002078C00602D42046FFF70AFD002608E092
:10498000D4E901211AF806009047206A401C761CE1
:1049900020624E45F4DB2078C0060AD52046FFF79A
:1049A000F7FC06E0D4E9012130209047206A401C42
:1049B0002062381EA7F10107F4DC07E0D4E90121E9
:1049C00018F805009047206A401C2062281EA5F1B7
:1049D0000105F3DC2046FFF7F1FC2078000602D544
:1049E0000220BDE8F0870120FBE711680268006A39
:1049F000530501D508700AE0D30501D5088006E00B
:104A0000130603D5C217C1E9000200E008600120C7
:104A10007047000001694A1C02610878704700B5C0
:104A20008FB0CDE901310021059105497944CDE9E7
:104A3000031011466846FFF737FD0FB000BD0000B8
:104A4000E5FFFFFF0A6802F8010B0A607047D1E931
:104A500000239A4202D2531C0B601070704710B5AD
:104A6000436913B1AFF3008001E0FFF7B8FC012008
:104A700010BD127800F124010A7000224A70012250
:104A8000EDE711684FF0FF32E9E700002DE9FF5F25
:104A900015468A460446DFF8AC80F8440027D8E97A
:104AA00000103E46CDE9001010E03AF816106A46B4
:104AB00002A800F0D0FD411C07D02178890603D55B
:104AC000E269391891420DD80744761C2078800697
:104AD00002D5E069B84205DDAE42E6DB3AF81600E1
:104AE0000028E2D1A069C01BA0612046FFF750FC5E
:104AF000D8E90010CDE90010002017E03AF81810AE
:104B00006A4602A800F0A7FDB0F1FF3F81460BD036
:104B100000250DF1080B05E0D4E901211BF8050083
:104B200090476D1C4D45F7D308F10100B042804617
:104B3000E4DB206A384420622046FFF73FFCBDE8F2
:104B4000FF9F0000C62800002DE9F0418046D21DDD
:104B500022F007020025D2E90002F52915A614D09B
:104B6000011E72F1000106DA0023D0EB030063EBB3
:104B7000020211A608E0D8F800108B0701D50FA695
:104B800002E0490701D50EA601251146002408F1CF
:104B9000240704E000F028F930323A55641C50EA4A
:104BA0000102F7D12B46324621464046BDE8F0418E
:104BB000FFF7C2BE000000002D0000002B00000027
:104BC0002000000030B4002100F1240408E002F0CD
:104BD0000705D208303542EA4372DB086554491CA8
:104BE00052EA0305F3D10468002310A2250707D574
:104BF000A40600D421B1C46901230DA2641EC461BE
:104C000030BCFFF799BE10B5044621461068FFF787
:104C10008AFE02462046BDE810400023D2E7D21D9E
:104C200022F00701D1E90023CCE7000000000000DA
:104C300030000000F0B40D460188090502D5214C72
:104C40007C4402E01F4C7C440E34002100F1240619
:104C500008E002F00F071209E75D42EA03721B0940
:104C60007754491C52EA0307F3D102780023120754
:104C700004D5702D06D009B1022311342246F0BCB0
:104C8000FFF75ABE01231034F8E770B504460D460D
:104C900021461068FFF747FE024629462046BDE838
:104CA00070400023C6E7D21D22F00703D3E900239A
:104CB000C0E70368126843F0200303600823C36160
:104CC0000023B7E7282700002DE9F04791460F465B
:104CD00080460446002614F8015B2DB100F062F80E
:104CE0000068405DC007F6D12B2D02D02D2D18D0C5
:104CF000641E4A463946204600F05EFC27B13968FA
:104D0000A14201D1C7F800804FF0020471050BD514
:104D10004042002803DDFFF7ABFD0460A007BDE8BB
:104D2000F08746F48066E4E70028F8DAFFF7A0FD94
:104D300004606FF00040F2E710B5203AC0F00B803D
:104D4000B1E81850203AA0E81850B1E81850A0E88F
:104D50001850BFF4F5AF5FEA027C24BFB1E81850E9
:104D6000A0E8185044BF18C918C0BDE810405FEA59
:104D7000827C24BF51F8043B40F8043B08BF7047D5
:104D8000D20728BF31F8023B48BF11F8012B28BFDA
:104D900020F8023B48BF00F8012B704700487047DD
:104DA0004002002010B500F0A3FC001D10BD00BFA4
:104DB000C9130000034640688C46002818BF88428B
:104DC0003CBF03464068F8D318681844884207D0AF
:104DD0000CF1030020F00700001D411A521A014691
:104DE000081D0A60FFF761BA30B5B0F10A024FEA58
:104DF000900E71F100034EEA817EB0EB0E0061EB84
:104E000091014FEA101E4EEA017E10EB0E0041EBBD
:104E100011114FEA102E4EEA016E10EB0E0041EB1D
:104E200011214FEA104E4EEA014E10EB0E0041EBFD
:104E30001141401841F100014FEAD00040EA4170B1
:104E40004FEAD10110EB80054FEA810444EA9074E7
:104E500044EB01046D1944EB0404521BA3414FF0D1
:104E6000000348BF0A3200D530BD401C41F10001AB
:104E700030BD70472DE9FF4F0C461E464FF0FF37FF
:104E80008BB0D2E90001DDF860800A908A46C1F358
:104E90000A5505B93D46002108464FF00000BAF119
:104EA000000F00F4400005DA00EB80004FF44001F1
:104EB00001EA50004FEA9059B9F1010F00DDB946FF
:104EC0000A9850EA4A000ED044F61050A5F2FF3579
:104ED00045432F14B8F1000F1ED07542291E1EDD68
:104EE000C9F100021CE0B8F1010F4FF0000001D041
:104EF000302103E0F24305E02154401CB042FBDBCB
:104F000030460022002121540B99C1F80880C1E9E4
:104F100000200FB0BDE8F08FBD1B6D1CDEE74A46D8
:104F200000DA694206A800F035FC06AB93E80700FA
:104F300003AB83E8070050460A9900F03AFD8DE87C
:104F40000700A0F500501F3800900398002D0ADDDF
:104F500042F21F014A460844002303A90390684611
:104F600000F0A3FF09E0A0F500504A461F380023D7
:104F700003A90390684600F0ADFF8DE80700000428
:104F8000000C03D04FF0FF30410800E01046B8F1AC
:104F9000000F03D00022009215461EE0751E05D4B6
:104FA000FFF722FF303262556D1EF9D5B34601225C
:104FB000084302D000227F1C04E02078302801D171
:104FC00000227F1E002A099784D01DE0112D07DAE8
:104FD000FFF70AFF303262556D1C50EA0102F5D12D
:104FE000084302D00098C8B10EE00021681E05E019
:104FF000235C625C63542254401E491C8142F7DBEF
:10500000AB46A81B401E0990002004F80B000B982B
:10501000099AC0F80880C0E9002B7AE711264FF002
:10502000000857E72DE9F04F88460446D21D22F0CC
:10503000070191B0D1E90001CDE90A0101F081F841
:1050400002460B98C00F01D02D2007E02068810791
:1050500001D52B2002E0202101EAC000032A09909B
:1050600001D0072A05DB03464146204600F044FBF9
:105070000BE12078800601D5E06900E00620B8F158
:10508000650F814606D0B8F1660F18D0B8F1670FEA
:1050900070D131E00020B9F1110F009001DB112334
:1050A00001E009F101030AAA01A90CA8FFF7E2FE39
:1050B000DDE90C70002609F10105834647E0012077
:1050C0004B4600904FF000470AAA01A90CA8FFF731
:1050D000D1FEDDE90DB00C995D46002610B909F14D
:1050E00001000D18B9EB050003D4C0F1FF3609F13A
:1050F0000105A5EB09002BE0B9F1010F01DA4FF032
:1051000001090020B9F1110F0090484601DD11237B
:1051100000E003460AAA01A90CA8FFF7ABFEDDE9EF
:105120000C704D4600268346207800070AD4AB4514
:1051300000DA5D4601A8012D04DD411911F8011CBA
:10514000302907D04F4502DA17F1040F04DA0120A5
:1051500082460FE06D1EEEE7002F02DCED1B3E44A1
:1051600003E0781CA84200DD7D1CB81B00F1010A99
:105170004FF000472078000703D4AA4501DB4FF029
:10518000FF3A0021B7F1004F0DF143088DF84310AD
:1051900024D002202B23002F01DA7F422D230A2165
:1051A000021EA0F1010000DC5FB197FBF1FC97FB50
:1051B000F1F201FB1C7C17460CF1300C08F801CD14
:1051C000EEE7A8F1010003702188090501D545210A
:1051D00000E06521A0F1010800F8011C09980FA961
:1051E000A1EB0807FF1D00B10120411901EBEA7096
:1051F000A1693844081A401EA0612078C00602D474
:105200002046FFF7C5F8099828B1D4E90121904755
:10521000206A401C20622078C00622D52046FFF775
:10522000B7F81EE0002E04DBB34502DD01A8805D67
:1052300000E03020D4E901219047206A401C206220
:10524000761CAAF101005FEA000A0AD100F050FAC8
:10525000C0680168405CD4E901219047206A401C85
:105260002062281EA5F10105DCDC07E0D4E901215C
:1052700018F8010B9047206A401C2062381EA7F1E5
:105280000107F3DC2046FFF799F8032011B041E64F
:105290002DE9F04F04460D46D21D22F0070089B0DB
:1052A000D0E900974846394600F04BFF0246F80F18
:1052B00001D02D2307E02068810701D52B2302E0D0
:1052C000202101EAC0038DF820300BB1012000E05D
:1052D0000020032A824601D0072A04DB2946204603
:1052E00000F00AFA3FE12078800601D40D2500E0A5
:1052F000E569C7F30A560D2D49DA00214FEA175B1D
:1053000008464FF00000002F00F4400007DA00EBE1
:1053100080004FF4400100EBD07001EA600081157D
:10532000012901DD4FF0FF3100224FEA850CBCF16D
:10533000180F06D31346ACF118004FF08052C2404C
:1053400003E04FF4801323FA0CF30CF10C0CBCF1C6
:10535000200F04D3ACF1200C09FA0CF001E007FA9D
:105360000CF000294FF0004801DD18B90FE00ED114
:1053700040450CD319EB02095F4121B9404502D1E8
:105380009F4329EA0209BBEB175F00D0761C2088F7
:10539000000502D57B48784402E07A487844193801
:1053A00008AA302302F80A30037C0AF10101002E1A
:1053B0000AF1020A53546A4602DC4FF0300101E060
:1053C0004FF031014FF001088DF8001002D0A6F225
:1053D000FF3603E059EA470100D06B4E002D02DC96
:1053E0002178090704D54FF002082E218DF801100D
:1053F000C44600210BE0C7F303433F01C35C491CD3
:105400006D1E02F80830052908F1010801DA002DA7
:10541000F1DC00210CE000EB1973491C1B786D1EB8
:10542000082902F808304FEA091908F1010801DAE1
:10543000002DF0DC21688B0602D516E0A8F10108EA
:10544000E04505DD02EB080313F8013C302BF5D0F5
:10545000B8F1000F09DD02EB080313F8013C2E2B15
:1054600003D1090701D4A8F10108002D05DD3E2173
:1054700002F808106D1E08F10108407C002E02F8A9
:10548000080008F1010804DA2D20764202F808002D
:1054900002E02B2002F808000A214FF47A708642BD
:1054A00008F101080BDB96FBF0F3303302F808300B
:1054B00096FBF0F308F1010800FB136601E0642E8F
:1054C0000CDB642096FBF0F3303302F8083096FBD7
:1054D000F0F308F1010800FB136601E00A2E06DB79
:1054E00096FBF1F0303002F8080008F1010896FB55
:1054F000F1F001FB1060303002F80800A16908F1FA
:10550000010808EB050202EB0A00081AA0612078E6
:10551000C00602D42046FEF73BFF216A08AE01EB2D
:105520000A00206204E0D4E9012116F8010B90473B
:10553000BAF1010AF7D22078C00602D52046FEF75C
:1055400027FF6E4609E016F8010B3E280FD0D4E97C
:1055500001219047206A401C2062B8F10108F2D274
:105560002046FEF72BFF09B00320BDE8F08F206A2C
:105570002844206203E0D4E90121302090476D1EC9
:10558000EBD3F8E70D20000002FCFFFF10B54369E4
:1055900013B1AFF3008001E0FFF778FA012010BDEE
:1055A000128800F1240182840022C2840122EDE7E6
:1055B00011684FF0FF32E9E72DE9F05F82461546AA
:1055C0008B4600270AF10104B9460078302801D043
:1055D0009DB113E014F8010B0127782803D0582857
:1055E00001D045B10AE00DB1102D07D1002714F804
:1055F000010B102502E0082500E00A250026B04630
:105600000EE005FB080005FB06F101271FFA80F8F4
:1056100001EB1046B6F5803F00D3B94614F8010BF4
:10562000294600F0A9F80028EBDABBF1000F05D0FD
:105630000FB1641E00E05446CBF80040B9F1000FF2
:1056400006D0FFF715F902210160C81EBDE8F09FE2
:1056500048EA0640FAE770B516460C460546FFF7DD
:10566000A1FB036893F80101012806D0FF2C0FD895
:10567000185D68B101202C7070BDD3F80701324667
:10568000214603F2071303442846BDE8704018473B
:105690004FF0FF3070BD10B500F0FCF8BDE81040D1
:1056A00000F0F3B870477546FFF778FBAE4605008B
:1056B0006946534620F00700854618B020B5FAF732
:1056C000EBFEBDE820404FF000064FF000074FF022
:1056D00000084FF0000B21F00701AC46ACE8C00910
:1056E000ACE8C009ACE8C009ACE8C0098D46704719
:1056F00000487047600200202DE9F0411F46044633
:1057000003260168072A01F4006004DB08B116A52E
:1057100005E016A503E008B115A500E015A521F0E8
:1057200010002060A069C01EA0610FB1401EA061E2
:105730002046FEF72DFE4FB1D4E9012138469047AF
:10574000206A401C2062C01C206206E0206AFAE742
:10575000D4E9012115F8010B9047761EF8D22046B6
:10576000FEF72CFEBDE8F0814E414E006E616E00EA
:10577000494E4600696E66003A2800D2303820F063
:105780002002412A01D3A2F13700884201D34FF011
:10579000FF3070472DE9F047814616468AB03548FC
:1057A00078440DC88DE80D0032487844801C03AC65
:1057B0000DC884E80D0041F69B300844372190FB6A
:1057C000F1F290FBF1F5A5F1800501FB12041B3C01
:1057D00002D56442012000E00020DFF898A0804656
:1057E0000027FA44AAF1BE0A0EE0E0070AD03246CA
:1057F000684607EB470101230AEB810100F06AFBD1
:105800008DE8070064107F1C002CEED1194F7F44F7
:10581000AE3F19E0E80715D007EB04100DF1180AA8
:1058200090E80E008AE80E00C068F04201D1981995
:1058300008903246012306A903A800F04BFB03ABF6
:1058400083E807006D10641C002DE3D14FF00103C5
:1058500032466946B8F1000F03A802D000F025FBDC
:1058600001E000F037FBC9E90001C9F808200AB0DF
:10587000BDE8F087941C000010B50446AFF300802B
:105880002046BDE81040FAF7F4BC002801D000F033
:1058900029B8704710B5012805D0002103A000F0F9
:1058A00027F8012010BD09A1F8E70000534947522D
:1058B000544D454D3A204F7574206F6620686561E0
:1058C00070206D656D6F7279000000003A204865A8
:1058D0006170206D656D6F727920636F7272757083
:1058E0007465640001491820ABBEFEE72600020083
:1058F00070B505460C460A2000E06D1C00F052F819
:1059000035B128780028F8D102E0641C00F04AF88C
:1059100014B120780028F8D1BDE870400A2000F0CA
:1059200041B800004FF0013C50F8042B51F8043B03
:105930009A4221D1A2EB0C03934313EACC1317D163
:1059400050F8042B51F8043B9A4215D1A2EB0C03FA
:10595000934313EACC130BD150F8042B51F8043BBA
:105960009A4209D1A2EB0C03934313EACC13DBD088
:105970004FF00000704700BFD01A01BAB1FA81F1B0
:1059800001F0180122FA01F0CB40C1F12001DBB295
:10599000C0B2C01A2CFA01F3D11A914311EAC31113
:1059A000E6D1704708B569468DF800000320ABBE0C
:1059B00008BD5FEA400C08BF91F0000F4FEA8C234E
:1059C0004FEAC12243EA51514FEA1C5018BF00F57B
:1059D000F0404FEA300018BF41F000415FEA6C5CD4
:1059E00000F02980BCF1FF3F08BF40F080407047C5
:1059F000130C06BF12044FF0100C4FF0000C130EE6
:105A000004BF12020CF1080C130F04BF12010CF1B9
:105A1000040C930F04BF92000CF1020CD30F04BFCF
:105A200052000CF1010C11464FF00002A0F11F00D2
:105A3000A0EB0C00704711F0004F08BF704731F029
:105A400000413FF4D5AF0B0C06BF09044FF0100C1A
:105A50004FF0000C0B0E04BF09020CF1080C0B0FE9
:105A600004BF09010CF1040C8B0F04BF89000CF179
:105A7000020CCB0F04BF49000CF1010CCCF1200348
:105A8000A0EB0C0022FA03F302FA0CF241EA030144
:105A900000F10100704720F07F4C80EA030023F002
:105AA0007F47ACEB070303F57C5300F0004003F1A4
:105AB000FF032DE980494FEA154B09B44FEA14431F
:105AC00025EA0B4E24EA03480FF2042606EB1327BF
:105AD00049083E785FEA320203FB0667C7F5000714
